:020000040800F2
:100000002005002001010008B51800082111000892
:10001000D917000899010008B11900080000000074
:10002000000000000000000000000000B9180008F7
:100030009B01000800000000B718000869190008BB
:100040001B0100081B0100081B0100081B01000820
:100050001B0100081B0100081B0100081B01000810
:100060001B0100081B0100081B0100081B01000800
:100070001B0100081B0100081B0100081B010008F0
:100080001B0100081B0100081B0100081B010008E0
:100090001B0100081B0100081B0100081B010008D0
:1000A0001B0100081B0100081B0100081B010008C0
:1000B0001B0100081B0100081B0100081B010008B0
:1000C0001B0100081B0100081B0100081B010008A0
:1000D0001B0100081B0100081B0100081B01000890
:1000E0001B0100081B0100081B010008DFF80CD0F1
:1000F00000F040F8004800473920000820050020A3
:100100000648804706480047FEE7FEE7FEE7FEE7B1
:10011000FEE7FEE7FEE7FEE7FEE7FEE7AF190008B1
:10012000ED000008D2B201E000F8012B491EFBD21D
:1001300070470022F6E710B513460A4604461946F2
:10014000FFF7F0FF204610BD30B50B4601460020FA
:100150002022012409E021FA02F59D4205D303FA89
:1001600002F5491B04FA02F52844151EA2F101020A
:10017000F1DC30BD064C074D06E0E06840F00103BD
:1001800094E8070098471034AC42F6D3FFF7B2FF6B
:10019000DC2B0008FC2B0008FEE77047074908B578
:1001A0000968074AB1FBF2F1064A414350685368B7
:1001B0001B1A00938B42FAD308BD0000B000002048
:1001C00040420F00001000E01CB50749012301AABE
:1001D000097908438DF804000A2000904E21034855
:1001E00000F010FA1CBD00009F000020B4000020A9
:1001F00000B585B04FF47A72072103A88DE8070097
:1002000001230022D021144800F092FA9DF80C003E
:1002100001F0BEFD114A10709DF80D0001F0B8FD0F
:1002200050709DF80E0001F0B3FD90709DF80F0026
:1002300001F0AEFD10719DF8100001F0A9FDD07025
:100240009DF8110001F0A4FD50719DF8120001F01D
:100250009FFD907105B000BDB40000209800002003
:1002600070B5044600F004F90546601C02D004484D
:100270000078044400F0FCF8401BA042FAD370BDA3
:10028000A40000202DE9F84FDFF8B891002409F10F
:10029000040A0AF1040B23460F270BF1040EC9E0F0
:1002A0000125A5402A40AA427DD1674ED1F804C05D
:1002B000ACEB0608B44532D014DCBCF1030F3AD0E5
:1002C00009DCBCF1000F2AD0BCF1010F1CD0BCF13D
:1002D000020F31D11DE0BCF1110F17D0BCF1120F8C
:1002E0002AD119E0B8F5881F19D006DCB8F5803F8F
:1002F00015D0B8F5801F1FD111E0B8F5001F0ED042
:10030000B8F5041F18D10AE0CB6815E0CB681B1DB7
:1003100012E0CB6808330FE0CB680C330CE08B683D
:100320002BB1012B4FF0080303D0456104E00423F7
:1003300002E0056100E00023FF2A01D8064601E043
:1003400000F104064FEA840501D9A5F12005D6F88D
:10035000008007FA05FC28EA0C0803FA05F548EACC
:100360000508C6F800804D68ED0062D5374DAE69CE
:1003700046F00106AE61AD6924F0030605F0010503
:100380000095334D06EB050CDCF80850A607360F38
:1003900007FA06F825EA0805DFF8B880404503D1DA
:1003A0004FF0000817E044E0DFF8AC80404502D190
:1003B0004FF001080FE0DFF8A480404502D14FF074
:1003C000020808E0DFF89880404502D14FF00308AA
:1003D00001E04FF0040808FA06F848EA0508CCF8EE
:1003E00008804D68D9F80060ED034D4601D51643ED
:1003F00000E096432E604D68DAF80060AD03554684
:1004000001D5164300E096432E604D68DBF800608E
:10041000ED025D4601D5164300E096432E604D681F
:10042000DEF80060AD02754601D5164300E0964344
:100430002E60641C0D682A46E5407FF431AFBDE8AC
:10044000F88F00000004014000001110001002406D
:100450000000014000080140000C01400010014074
:10046000001401408068084000D00120704700005F
:100470000148806870470000A400002070B50400A7
:1004800025D094F83D00002520B984F83C50204642
:1004900000F00EFB242084F83D002068016821F064
:1004A000010101602068016841F400410160206899
:1004B000016821F40041016000F048FC4D4A616888
:1004C000914201D84C4900E04C49884201D20120B8
:1004D00070BD4B492368B0FBF1F15E6826F03F0622
:1004E0000E435E606368934206D94FF49673594396
:1004F0004FF47A73B1FBF3F12368491C1E6A26F0AE
:100500003F06314319626168914210D84900401E8C
:10051000B0FBF1F2521CC2F30B02042A01D20420F8
:1005200022E0B0FBF1F0401CC0F30B001CE0A2681D
:10053000F2B301EBC10303EB0116431EB3FBF6F369
:100540005B1C43F480431B0549D092B301EBC1020D
:1005500002EB0111401EB0FBF1F0401CC0F30B0098
:1005600040F4804040F400402168CA694CF6FF73B3
:100570009A431043C861D4E9071001432068026818
:1005800022F0C00211430160D4E903010143206855
:10059000826848F2FF339A4311438160D4E9050130
:1005A00008432168CA6822F0FF021043C86001E0D6
:1005B0000EE016E02068016841F001010160256449
:1005C000202084F83D00256384F83E50002070BD53
:1005D00001EB4106431EB3FBF6F35B1CB3E70120BE
:1005E000C2E701EB4101401EB0FBF1F0401CC0F33B
:1005F0000B00B7E7A086010080841E0000093D00C3
:1006000040420F002DE9F84F1F4690468A460446A7
:10061000DDF82890FFF72CFF054694F83D002028D0
:100620007FD11923012240492046009500F0D6FED3
:10063000002876D194F83C00012872D0012084F87B
:100640003C0020680168C90703D1016841F001013D
:1006500001602068016821F400610160212084F8B4
:100660003D00102084F83E0000262664C4F8248053
:100670006785608D20852D48E0622B464A465146AD
:10068000204600F065FD90B92068416980690090BE
:1006900036E02A464946204600F052FF50B1206C11
:1006A000042804D12068016841F400710160012030
:1006B000BDE8F88F606A216800780861606A401CB4
:1006C0006062618D491E6185218D491E89B2218537
:1006D00022685369DB435B070BD451B1007810618A
:1006E000606A401C6062608D401E6085208D401EE7
:1006F00020852A464946204600F04AFE0028CED1F1
:10070000208D0028C5D154F83D0B016841F40071DB
:100710000160202004F81E09E67766770020C7E70D
:10072000FFE70220C4E70000020010000000FFFF06
:100730002DE9FF4F83B00025DDE910799A469346F5
:100740000446DDF848800095FFF792FE064694F8CF
:100750003D0020287CD1192301228549204600969E
:1007600000F03CFE0028F5D194F83C0001286FD041
:10077000012084F83C0020680168C90703D10168A2
:1007800041F0010101602068016821F4006101600D
:10079000222084F83D00402084F83E0025646762F2
:1007A000A4F82A90608D20857248E062CDE9008629
:1007B00053465A462046049900F018FD00287DD182
:1007C000208DDFF8B491202768B1012814D00228C9
:1007D000206801681ED041F4806101602068416991
:1007E00080690090B6E020684169816900910168E4
:1007F00041F400710160ADE02068016821F480617E
:10080000016072B62068416981690091016841F414
:1008100000710AE041F40061016072B6206841692C
:1008200081690091016821F48061016062B691E004
:10083000032868D801280CD0022843464FF0000254
:100840004946204600960FD000F0C8FDB0BB10E02E
:100850008BE032464146204600F03FFE70BB2068E8
:100860000069616A08706CE000F0B8FD30BB72B6D8
:1008700034E02068016821F48061016072B620686C
:100880000069616A0870606A401C6062208D401EC9
:100890002085608D401E6085384846F2A8110068AA
:1008A000B0FBF1F0C0EBC00000EB80000090401EF8
:1008B000009008D020684069C04300E029E040076C
:1008C0000CD50098F3E744F8305F6773A57320698F
:1008D00040F02000206162B625731AE020680168AC
:1008E00041F40071016020680069616A0870606A03
:1008F000401C6062218D491E2185618D491E6185E4
:1009000062B621681BE032464146204600F0E5FD14
:1009100018B1012007B0BDE8F08F20680069616A56
:100920000870606A401C6062218D491E2185618DBE
:10093000491E618521684A69D24352070AD4096970
:100940000170606A401C6062208D401E2085608DB1
:10095000401E6085208D00287FF46AAF84F83D70CA
:1009600084F83E5084F83C50D4E70220D2E70000DF
:10097000020010000000FFFF04000100B000002092
:100980002DE9FF4F83B09A46DDE91197934604465F
:10099000DDF84080FFF76CFD054694F83D00202807
:1009A0007FD11923012240492046009500F016FD11
:1009B000002876D194F83C00012872D0012084F8F8
:1009C0003C0020680168C90703D1016841F00101BA
:1009D00001602068016821F400610160212084F831
:1009E0003D00402084F83E0000262664C4F82480A0
:1009F000A4F82A90608D20852C48E062CDE900752E
:100A000053465A462046049900F06EFC70B930E017
:100A10002A463946204600F093FD58B1206C042840
:100A200004D12068016841F400710160012007B021
:100A3000BDE8F08F606A216800780861606A401C38
:100A40006062218D491E89B22185628D521E6285A8
:100A500022685369DB435B070BD469B100781061EE
:100A6000606A401C6062208D401E2085608D401EA3
:100A70006085208D0028CBD12A463946204600F0DB
:100A800087FC0028CAD154F83D0B016841F400717D
:100A90000160202004F81E09E67766770020C6E78B
:100AA000FFE70220C3E70000020010000000FFFF84
:100AB00010B586B000210091019102910391006868
:100AC0000F4988421AD10F4CA06940F00800A0617C
:100AD000A069694600F008000490C0200090122030
:100AE0000190032003900848FFF7CCFBE06940F435
:100AF0000010E061E06900F40010049006B010BD41
:100B00000054004000100240000C0140024881687F
:100B10000278114481607047A4000020074810B596
:100B2000016841F010010160032000F067F8002027
:100B300000F006F800F024F8002010BD002002406C
:100B400070B50D4D04464FF47A712878B1FBF0F082
:100B50000A490968B1FBF0F000F0CEFA48B9102C50
:100B600007D200222146501E00F028F800206C60B9
:100B700070BD012070BD0000A4000020B000002066
:100B80000C4808B5816941F001018161816901F07A
:100B900001010091C16941F08051C161C06900F05B
:100BA000805000900448416821F0E06141F00071FC
:100BB000416008BD0010024000000140F0B40E4B3F
:100BC0001B680C46C3F30223C3F10705042D00D9AB
:100BD0000425191D072901D2002300E0DB1E012690
:100BE00006FA05F1491E214099409E40761E1640A6
:100BF0003143F0BC00F006BF0CED00E0064900F008
:100C0000070208684FF6FF03184040EA0220034A33
:100C100010430860704700000CED00E00000FA058A
:100C20002DE9F0470F46050061D0434E306800F0D3
:100C30000700B84209D2306820F00700384330601E
:100C4000306800F00700B84251D128683B4C81075A
:100C500012D5400703D5606840F4E06060602878F2
:100C6000000703D5606840F4605060606068A96860
:100C700020F0F000084360602878C00728D068683A
:100C8000012810D02168022810D0890700292EDA07
:100C9000616821F0030101436160FFF7E9FB8046D1
:100CA00041F288390DE021688903EFE78901EDE71A
:100CB000FFF7DEFBA0EB0801494502D90320BDE8A0
:100CC000F0876068696800F00C00B0EB810FEFD12D
:100CD000306800F00700B8420BD9306820F00700F8
:100CE00038433060306800F00700B84201D001207E
:100CF000E5E72878400705D56068E96820F4E060FA
:100D0000084360602878000706D56068296920F4E8
:100D1000605040EAC100606000F028F86168084A4D
:100D2000C1F30311515CC8400649086006480068D9
:100D3000FFF706FF0020C2E700200240001002403B
:100D4000C42B0008B0000020A8000020044805497A
:100D500000684968044AC1F30221515CC8407047E9
:100D6000B000002000100240D42B000812A185B072
:100D70000FC98DE80F0014A0144A00680490516850
:100D8000134801F00C03042B10D0082B0ED1C1F333
:100D90008343C9031DF803000AD5516804AAC1F3AF
:100DA0004041515C0A4A5043B0FBF1F005B0704736
:100DB00008494843FAE7000002030405060708094A
:100DC0000A0B0C0D0E0F1010010200000010024063
:100DD00000127A0000093D002DE9F84F040070D0A0
:100DE0002078C04DC00749D06868C0F38100012851
:100DF00007D06868C0F38100022809D16868C00381
:100E000006D52868800339D560680028E7D035E02A
:100E10006068B0F5803F0BD010B1B0F5A02F11D0B5
:100E2000286820F480302860286820F4802002E0C0
:100E3000286840F480302860606890B1FFF718FBA4
:100E400006460AE0286840F480202860F0E700BFEA
:100E5000FFF70EFB801B642873D828688003F7D542
:100E60000CE0FFF705FB064605E000BFFFF700FBBF
:100E7000801B6428F0D828688003F7D420789A4E25
:100E800080074FF001094FF0000839D5686810F06D
:100E90000C0F07D06868C0F38100022809D1686888
:100EA000C00306D42868800714D52069012808D11A
:100EB00010E02069B0B1C6F80090FFF7D9FA0746F4
:100EC00005E00AE1FFF7D4FAC01B0228C4D828685D
:100ED0008007F7D52868616920F0F80040EAC10072
:100EE00028600DE0C6F80080FFF7C2FA074604E06C
:100EF000FFF7BEFAC01B022823D828688007F7D462
:100F0000207800072CD57948A169D9B1C0F80090A4
:100F1000FFF7AEFA074604E0FFF7AAFAC01B022863
:100F20000FD8686A8007F7D571484FF4FA51006806
:100F3000B0FBF1F0009000BF0098411E0091FAD282
:100F40000EE080E0C0F80080FFF792FA074604E068
:100F5000FFF78EFAC01B022875D8686A8007F7D49D
:100F60002078400760D5E8690027C00008D4E86908
:100F700040F08050E861E869012700F0805000905F
:100F80005C480168C90513D40168834641F4807147
:100F90000160FFF76DFA824606E000BFFFF768FACE
:100FA000A0EB0A0064284ED8DBF80000C005F5D598
:100FB000E06801280AD008B1052813D0286A20F07B
:100FC00001002862286A20F0040002E0286A40F04C
:100FD00001002862E06841F2883B98B1FFF748FAC7
:100FE00082460BE0286A40F004002862EEE700BF6A
:100FF000FFF73EFAA0EB0A0159455AD8286A800744
:10100000F6D50CE0FFF734FA824605E0FFF730FA38
:10101000A0EB0A0159454CD8286A8007F6D41FB1C5
:10102000E86920F08050E861E06988B36968C1F33D
:101030008101022944D00228C6F8608004D0FFF75D
:1010400017FA044638E034E0FFF712FA074604E0E6
:10105000FFF70EFAC01B02282BD828688001F7D4AE
:10106000206AB0F5803F05D16868A16820F400309F
:1010700008436860D4E908010843696821F47411E1
:1010800008436860C6F86090FFF7F2F9044606E08E
:1010900025E000BFFFF7ECF9001B022809D82868FB
:1010A0008001F7D51BE000BFFFF7E2F9001B022823
:1010B00002D90320BDE8F88F28688001F4D40EE03F
:1010C0000128F7D06868226A00F48031914204D187
:1010D000616A00F47010884201D00120EAE7002024
:1010E000E8E7000000100240000042428004424253
:1010F000B00000200070004010B5401EB0F1807FAD
:1011000001D3012010BD4FF0E02460610F21601772
:1011100000F078FC0020A06107202061002010BDB5
:10112000FEE701684A69D24352050FD46FF480622A
:101130004A61002140F8301F202242738173026906
:1011400042F00402026101730120704700207047E1
:10115000F8B50446C06A1E460D461746082807D053
:10116000012805D010F5803F02D0206B122804D151
:101170002068016841F480710160134600224FF03D
:1011800001112046009600F029F940B1206800685E
:10119000C00502D54FF4007020640320F8BD20691B
:1011A000B0F5804F0ED00620216800EAD51040F03F
:1011B000F000086133463A460B49204600F042F9F8
:1011C00078B902E005F0FE0000E0E8B221680861AD
:1011D000054933463A46891F204600F033F9002876
:1011E000DCD00120F8BD0000080001002DE9F84F17
:1011F0000446006889460B9D01689846174641F4ED
:10120000806101602068016841F48071016000958F
:101210004FF0011B0022594620460A9B00F0DEF8E1
:101220004FF4007A40B120680068C00501D5C4F8C9
:1012300040A00320BDE8F88F216809F0FE00086196
:101240002B46284920460A9A00F0FCF8F0BB20689B
:101250004169806900902A4620460A9900F070F999
:1012600040B1206C04283AD12068016841F4007133
:10127000016034E0FEB2B8F1010F09D02168380AEC
:1012800008612A4620460A9900F05AF90028E8D158
:10129000206806612A4620460A9900F051F9002884
:1012A000DFD12068016841F480710160009500225F
:1012B000594620460A9B00F091F80028B3D12168D6
:1012C00009F0FF0040F00100086100E007E02B4654
:1012D000044920460A9A00F0B5F80028AAD0012057
:1012E000A8E70000020001002DE9F8430446006869
:1012F0000D46DDE9089701689846164641F480716D
:1013000001604B4600224FF001112046009700F08B
:1013100065F848B120680068C00502D54FF4007038
:1013200020640320BDE8F883216805F0FE00086111
:101330003B464A461549204600F084F888B92068A3
:101340004169806900903A464946204600F0F8F825
:1013500048B1206C042804D12068016841F4007170
:1013600001600120DEE7F5B2B8F1010F09D0216874
:10137000300A08613A464946204600F0E1F8002864
:10138000E7D1206805610020CCE7000002000100E1
:1013900070B516460D4604460DE02046FFF7C1FE27
:1013A00008B1012070BD681C05D0FFF761F8801BF3
:1013B000A84207D835B120684069C0434007ECD443
:1013C000002070BD002044F8300F20216173A0730D
:1013D000216941F0200121612073E2E72DE9F04706
:1013E0001E4690460D460446C1F30747DDF820909F
:1013F00008E0701C06D0FFF73BF8A0EB0900B042F4
:101400000FD876B12068012F18D0806925EA000036
:101410000004000C14D000214145EAD00020BDE8B2
:10142000F087002044F8300F20216173A0732169F8
:1014300041F02001216120730120F0E74069E5E7D8
:101440000121E9E72DE9F0479A4691460E46044608
:1014500000254FF02008C1F3074725E020684069C8
:10146000C043400514D42068016841F40071016054
:1014700021686FF480604861256384F83D8084F8BA
:101480003E50206C40F00400206484F83C501FE083
:10149000B9F1FF3F08D0FEF7EBFFA0EB0A01494589
:1014A0000CD8B9F1000F09D02068012F13D0806942
:1014B00026EA00000004000C0BD0CFE744F8305FB0
:1014C00084F80D80A573206940F020002061257309
:1014D0000120BDE8F0874069EAE72DE9F0410025E9
:1014E00090460E460446202717E04069C043C006D8
:1014F0000CD454F8301B6FF01000486144F81059B8
:101500006777A577206A2062257717E0FEF7B0FF9E
:10151000A0EB0800B04208D83EB120684169C94339
:101520004906E2D40020BDE8F08144F8305F6773DB
:10153000A573206940F02000206125730120F2E7A7
:1015400070B516460D4604460DE02046FFF7E9FD4E
:1015500008B1012070BD681C05D0FEF789FF801B13
:10156000A84207D835B120684069C0430006ECD4D2
:10157000002070BD002044F8300F20216173A0735B
:10158000216941F0200121612073E2E710B50120BB
:1015900000F0A6F9BDE810404FF4FA60FEF7FEBD7A
:1015A0000449487840F00200487040F0080000F01C
:1015B00097B900009F0000200449487840F00400DB
:1015C000487040F0080000F08BB900009F00002038
:1015D00010B5022000F084F9BDE810404FF4FA6025
:1015E000FEF7DCBD70B52E4C08220021E0702271A0
:1015F00004252170012801D9227000E025702948B6
:10160000026822F080720260026842F0807202601A
:101610002548026822F001020260026842F00102DD
:101620000260416000BF00BF00BF3220FEF718FE1D
:101630002079FEF7C9FD4FF47A70FEF711FE3020D5
:1016400000F0B7F941F294163046FEF7A7FD3020BE
:1016500000F0AFF93046FEF7A1FD302000F0A9F907
:101660003046FEF79BFD202000F0A3F96420FEF732
:1016700095FD207840F0200000F032F96570FFF70A
:101680009BFFFFF783FF0220A070062000F028F9DF
:101690003046FEF783FDBDE87040FFF799BF0000BC
:1016A0009F000020FCED00E0001000E004494878B5
:1016B00020F00200487040F0080000F011B900006E
:1016C0009F00002010B5044602E0641C00F005F9FC
:1016D00020780028F9D110BD7FB5094D3CCD8DE8AB
:1016E0003C00084AD278914201D3521ED1B21DF873
:1016F00021100844C0B240F0800000F0F1F87FBD36
:10170000B42B00089F00002000B585B00020019098
:1017100003901148816941F020018161816901F0E4
:1017200020010491816941F004018161816901F026
:1017300004010491816941F0080181618069694671
:1017400000F0080004900720009001200290034858
:10175000FEF798FD05B000BD0010024000080140F2
:1017600038B5124C12A1207800906378A278144802
:1017700000F034F900210846FFF7AEFF1048FFF7EC
:10178000A1FFA07900906379E2780EA10C4800F0E7
:1017900025F901210020FFF79FFF0948FFF792FF7D
:1017A000BDE838404FF4FA70FEF75ABD98000020AB
:1017B000253032643A253032643A253032640000F4
:1017C00008010020253032642D253032642D32305E
:1017D0002530326400000000FEE70000244810B508
:1017E0000068B8B1012824D0022831D003283ED1A6
:1017F000FFF7CCFE00210846FFF76EFF1DA0FFF7A4
:1018000061FF01210020FFF767FF1CA0BDE8104029
:10181000FFF758BFFFF7BAFE00210846FFF75CFF4D
:1018200018A0FFF74FFF01210020FFF755FF17A079
:10183000ECE7FFF7ABFE00210846FFF74DFF15A0D0
:10184000FFF740FF01210020FFF746FF13A0DDE76F
:10185000FFF79CFE00210846FFF73EFF11A0FFF7AF
:1018600031FF01210020FFF737FF10A0CEE710BDA8
:10187000000000202054494D450000003E414C41ED
:10188000524D00003E4241434B0000002044415471
:1018900045000000204241434B0000003E444154BB
:1018A000450000003E54494D4500000020414C4198
:1018B000524D000070477047704770B500F0F0025D
:1018C00000070C46050E42EA040000F072F845EAF3
:1018D0000400BDE8704000F06CB80121FFF7EDBFD7
:1018E0000021FFF7EABF00001FB513460C4600F0C9
:1018F000EFFA8DF80C00204600F0EAFA8DF80D00A2
:10190000184600F0E5FA8DF80E004FF47A720321C4
:1019100003A88DE8070001230422D0210148FFF726
:101920002FF81FBDB40000201FB513460C4600F071
:10193000CFFA8DF80C00204600F0CAFA8DF80D00A1
:10194000184600F0C5FA8DF80E004FF47A720321A4
:1019500003A88DE8070001230022D0210148FFF7EA
:101960000FF81FBDB4000020FFF7D0B810B590B03D
:1019700028216846FEF7DDFB14210AA8FEF7D9FBF3
:10198000022000900120049010200024059007946C
:101990006846FFF721FA0F20CDE90A040C940D9454
:1019A00000210AA80E94FFF73BF910B010BD704754
:1019B000FEE710B50446FEF707FC44F00400FEF70E
:1019C00003FC1420FEF7EAFB24F00400FEF7FCFB06
:1019D000BDE810401420FEF7E1BB00000FB4084B37
:1019E00010B504A902AA039800F02CF8044602A935
:1019F000002000F0C8F9204610BC5DF814FB000080
:101A0000871D00080907090E002804DB00F1E0200B
:101A100080F80014704700F00F0000F1E02080F81B
:101A2000141D704702E008C8121F08C1002AFAD12D
:101A300070477047002001E001C1121F002AFBD14E
:101A4000704700002DE9FF4F8BB088460546002601
:101A500006E025280BD0DDE90D1290476D1C761CA1
:101A600028780028F5D10FB03046BDE8F08F00246B
:101A7000A146A2460122AE4900E0044315F8013F09
:101A8000203B02FA03F00842F7D128782A2810D028
:101A90006FF02F022878A0F13001092915D809EB41
:101AA000890102EB410144F0020400EB01096D1CC5
:101AB000F0E758F8041B5FEA010903D544F4005429
:101AC000C9F1000944F002046D1C28782E2817D1B2
:101AD00015F8010F44F004042A280ED06FF02F02ED
:101AE0002878A0F1300109290AD80AEB8A0102EB13
:101AF000410100EB010A6D1CF2E758F804AB6D1CC4
:101B000028786C280FD006DC4C2817D068280DD018
:101B10006A2814D104E0742810D07A280FD10DE07F
:101B200044F400140AE044F4801401E044F4401446
:101B30006978814202D104F580146D1C6D1C2878EF
:101B4000692865D006DC00288DD0632827D064285A
:101B500006D15DE06E2808D073282AD0752877D08A
:101B6000DDE90D129047761CE0E0C4F30250022834
:101B700009D003280DD0D8F8001004280DD00E602D
:101B800008F10408D2E0D8F80010F217C1E90062A9
:101B9000F6E7D8F800100E80F2E70E70F0E718F8BC
:101BA000041B8DF8001000208DF80100EB46012089
:101BB00003E058F804BB4FF0FF3061074FF0000717
:101BC00001D40AE07F1C57450DDA8742FADB1BF887
:101BD00007100029F6D106E07F1C8742FCDB1BF8CA
:101BE00007100029F8D1DDE90D23A9EB0700814694
:101BF000214600F0B1F83044C61904E0DDE90D12C9
:101C00001BF8010B90477F1EF8D22146484688E01A
:101C100058F8040BC4F302514FF00A0B032900D10A
:101C200000B2042900D140B2002802DA40422D213E
:101C300002E0210505D52B218DF82410012104E0B7
:101C400006E0E10710D02021F6E708AF089113E085
:101C500058F8040BC4F302514FF00A0B032900D1CA
:101C600080B2042900D1C0B20021EEE75946FEF748
:101C70006BFA303107F8011D0028F7D1ADEB0700F2
:101C800000F1200B600702D524F4803401E04FF00E
:101C9000010ADA4502DDAAEB0B0000E000208246D3
:101CA00000EB0B0108980144A9EB01000A90E00346
:101CB00006D4DDE90D2321460A9800F04DF80644CC
:101CC0004FF0000908E009A911F80900DDE90D123B
:101CD000904709F10109761C08998945F3DBE00377
:101CE0000CD5DDE90D2321460A9800F035F80644AD
:101CF00004E0DDE90D1230209047761CBAF10001B6
:101D0000AAF1010AF5DC05E0DDE90D1217F8010B77
:101D10009047761CBBF10001ABF1010BF4DC0A9893
:101D20002146DDE90D2300F005F806446D1C97E619
:101D3000092801002DE9F041044600251E461746FA
:101D4000880404D405E039462020B0476D1C641E89
:101D5000F9D52846BDE8F0812DE9F041044600257B
:101D60001E469046C80301D5302700E0202788048E
:101D700004D505E041463846B0476D1C641EF9D5D0
:101D80002846BDE8F0810A68531C0B60107070474C
:101D900000F00F01000900EB800001EB40007047EC
:101DA000114810B5806806281DD2DFE800F01C033A
:101DB00003030303FFF7EAFB00210846FFF78CFC4F
:101DC0000AA0FFF77FFC01210020FFF785FC09A096
:101DD000FFF778FC01210C20FFF77EFCBDE81040E6
:101DE00006A0FFF76FBC10BD000000204441544521
:101DF0003A20000054494D453A2000004241434BEF
:101E000000000000114810B5006800281DD001280E
:101E100013D0022819D1FFF7B9FB00210846FFF7BC
:101E20005BFC0BA0FFF74EFC01210C20FFF754FCDC
:101E3000BDE8104009A0FFF745BCFFF7A7FB002154
:101E40000846FFF749FC07A0ECE710BD00000020A2
:101E500053455455502054494D4500004241434B91
:101E600000000000534554555020444154450000A3
:101E70000A4A12694AB1012A06D10868401C086062
:101E8000172801DD0020086070470168491C0160C7
:101E90001F29F9DD012101607047000000000020CA
:101EA0000A4A12694AB1012A06D10868401C086032
:101EB0003B2801DD0020086070470168491C016073
:101EC0000C29F9DD012101607047000000000020AD
:101ED0000A2190FBF1F201FB120290FBF1F002EB00
:101EE0000010C0B2704700002DE9F04115460268AD
:101EF0001C460E4607460A2A0EDA00210620FFF786
:101F0000EBFB47A0FFF7DEFB46A147483A68FFF727
:101F100065FD0021072005E042A14348FFF75EFD73
:101F200000210620FFF7D8FB3F48FFF7CBFB00213D
:101F30000820FFF7D1FB3DA0FFF7C4FB32680A2A57
:101F40000EDA00210920FFF7C7FB35A0FFF7BAFB27
:101F500034A135483268FFF741FD00210A2005E031
:101F600030A13148FFF73AFD00210920FFF7B4FB0B
:101F70002D48FFF7A7FB00210B20FFF7ADFB2BA09F
:101F8000FFF7A0FB2A680A2A0EDA01210620FFF7D4
:101F9000A3FB23A0FFF796FB22A123482A68FFF7A3
:101FA0001DFD0121072005E01EA11F48FFF716FDBA
:101FB00001210620FFF790FB1B48FFF783FB01215F
:101FC0000820FFF789FB1AA0FFF77CFB22680A2A8A
:101FD0000EDA01210920FFF77FFB11A0FFF772FB4A
:101FE00010A111482268FFF7F9FC01210A2005E041
:101FF0000CA10D48FFF7F2FC01210920FFF76CFB53
:102000000948FFF75FFB0B48017C007BFFF764FB8F
:10201000FFF7C6FABDE8F0413220FEF721B9000013
:102020003000000025640000080100202F0000009F
:102030003A00000000000020FEF770FDFFF796FC5C
:10204000FFF762FBFE48FD4900250160FD49C0E93C
:1020500001154FF48041C0E9035145618561C561B7
:102060000562FEF70BFA0220FFF7BCFADFF8D893FF
:10207000F64E09F118074FF0050B4FF0020A4FF02A
:102080000108A7F1980400BFFEF7B2F82168606963
:10209000A36940EA01021A4304D0022807D00328AA
:1020A00005D02FE1FFF75CFBFFF700FB5EE10329A2
:1020B0007ED0012902D002297BD00FE1226A0A2AB0
:1020C0000FDA01210020FFF707FBE1A0FFF7FAFA82
:1020D000DB48E0A15430226AFFF780FC012108466A
:1020E00006E0D748DBA15430FFF778FC012100203F
:1020F000FFF7F2FAD2485430FFF7E4FA0121022048
:10210000FFF7EAFAD4A0FFF7DDFA626A0A2A0FDACB
:1021100001210320FFF7E0FACDA0FFF7D3FAC8486A
:10212000CCA15430626AFFF759FC0121042006E07B
:10213000C348C8A15430FFF751FC01210320FFF729
:10214000CBFABF485430FFF7BDFA01210520FFF755
:10215000C3FAC1A0FFF7B6FAB948BEA15430A26ACB
:10216000FFF73CFC01210620FFF7B6FAB4485430D3
:10217000FFF7A8FAB248B7A15430E26AFFF72EFC85
:1021800001210720FFF7A8FAAD485430FFF79AFA6B
:10219000AB48B0A15430226BFFF720FC012108208E
:1021A000FFF79AFAA6485430FFF78CFAA9A101E08C
:1021B000A6E025E0A248626B5430FFF70FFC012136
:1021C0000920FFF789FA9E485430FFF77BFA206B0D
:1021D000616B00EB800001EB4000A06320790121DE
:1021E000FFF77AFAFFF7DCF93220FEF739F894F8B6
:1021F000382094F8241094F82000FFF775FB6DE068
:10220000E26B0A2A0FDA01210020FFF765FA90A09D
:10221000FFF758FA8A488FA15430E26BFFF7DEFBD4
:102220000121084606E086488AA15430FFF7D6FB14
:1022300001210020FFF750FA81485430FFF742FA9D
:1022400001210220FFF748FA84A0FFF73BFA226C35
:102250000A2A0FDA01210320FFF73EFA7CA0FFF7DC
:1022600031FA77487BA15430226CFFF7B7FB01218C
:10227000042006E0724877A15430FFF7AFFB01213C
:102280000320FFF729FA6E485430FFF71BFA0121AB
:102290000520FFF721FA71A0FFF714FA626C0A2AF1
:1022A0000FDA01210620FFF717FA69A0FFF70AFAF3
:1022B000634868A15430626CFFF790FB012107204E
:1022C00006E05F4863A15430FFF788FB0121062038
:1022D000FFF702FA5A485430FFF7F4F92079012148
:1022E000FFF7FAF9FFF75CF93220FDF7B9FF94F830
:1022F0003C2094F8401094F84400FFF715FB35E0BB
:10230000032801D0042831D103292FD1A068012846
:1023100008D002280DD0032812D0042817D0052891
:102320001CD023E0484B343B1A1F02F10C01081F5C
:102330001AE0454B243B1A1F02F10C01081F13E061
:10234000414B143B1A1F02F10C01081F0CE03E4BDD
:102350001B1F1A1F02F10C01081F05E03A4B0C333A
:102360001A1F02F10C01081FFFF7BEFD606908B1DA
:10237000A56151E0F878216D88420ED0216E884227
:102380000BD0216F884208D0D9F80020904204D0A9
:102390003879D9F81010884236D17879616D884241
:1023A0000DD0616E88420AD0616F884207D0D9F89B
:1023B0000420904203D0D9F81410884224D1B87870
:1023C000A16C88420CD0A16D884209D0A16E8842D0
:1023D00006D0A16F884203D0D9F80810884213D1E3
:1023E0007878E16C88420CD0E16D884209D0E16ECA
:1023F000884206D0E16F884203D0D9F80C10884299
:1024000002D13878012803D0A069012802D003E066
:10241000C4F8188000F082FB02213046FEF722F853
:10242000002823D102213046FEF71CF80028F9D0FD
:10243000606901281BD0022823D011E0005400401D
:10244000B4000020A08601008000002000080140A8
:1024500030000000256400002F0000003A0000005A
:1024600003281ED0022811D0042873D0F5E020687C
:10247000052801DB256001E0401C2060FFF7AEF974
:10248000EBE02068012805D0022803D0206803284B
:102490006FD0E2E06068401C60600F2800DD65607E
:1024A000DBE02068012804D002283FD0032861D057
:1024B000D3E0606870B101280CD0032812D0042842
:1024C00010D0062816D007281BD0082820D00928AD
:1024D00025D0C2E0206A401E2062012801DA1F20B8
:1024E0002062BAE0606A401E6062012801DA0C20B6
:1024F0006062B2E0A06A401EA06201D50920A0621D
:10250000ABE0E06A401EE06201D50920E062A4E091
:10251000206B401E206301D5092020639DE0606B85
:10252000401E606301D50920606396E0606850B189
:10253000012808D003280ED004280CD0062811D07A
:1025400007280FD089E0E06B401EE06301D517201B
:10255000E06382E028E0206C401E20647DD53B20B3
:1025600020647AE0606C401E606476D53B20606435
:1025700073E010E0E068401CE060216929B10F2899
:102580006BDD0620C4E9030567E00A2865DD062047
:10259000C4E9030861E0A068401CA060052800DDD4
:1025A000A56000F00FFA58E02068032855D1E068D4
:1025B000062806D0072804D0092828D00A2826D0C3
:1025C0004BE0A068012808D002280AD003280FD0C9
:1025D000042812D0052815D03FE0F94901F1080080
:1025E00003E0F749103101F1080000F0B7FA34E0D8
:1025F000F349203101F10800F7E7F149303101F1E9
:102600000800F2E7EE49403101F10800EDE7A0686B
:10261000012808D002280BD003280ED0042811D09E
:10262000052814D019E0E649091D01F1080012E05F
:10263000E349143101F108000DE0E149243101F1D1
:10264000080008E0DE49343101F1080003E0DC490C
:10265000443101F1080000F097FA04213046FDF7FB
:1026600001FFE169884229D004213046FDF7FAFED6
:1026700020BB04213046FDF7F5FE0028F9D0606943
:10268000012808D0022811D003281FD0022812D018
:10269000042874D0F6E02068002802DCC4F800B0FA
:1026A00001E0401E2060FFF799F8EBE02068012868
:1026B00005D0022803D0206803286FD0E2E06068CC
:1026C000401E606001D50F206060DBE020680128BB
:1026D00004D002283FD0032861D0D3E0606870B1F5
:1026E00001280CD0032812D0042810D0062816D0B8
:1026F00007281BD0082820D0092825D0C2E0206A4E
:10270000401C20621F2801DDC4F82080BAE0606A06
:10271000401C60620C2801DDC4F82480B2E0A06A8D
:10272000401CA062092800DDA562ABE0E06A401C05
:10273000E062092800DDE562A4E0206B401C206314
:10274000092800DD25639DE0606B401C606309285B
:1027500000DD656396E0606850B1012808D0032869
:102760000ED004280CD0062811D007280FD089E0FD
:10277000E06B401CE063172800DDE56382E028E0A1
:10278000206C401C20643B287CDD25647AE0606C72
:10279000401C60643B2875DD656473E010E0E06810
:1027A000401EE060216929B106286BDA0A20C4E9DD
:1027B000030567E0062865DA0F20C4E9030861E035
:1027C000A068401EA06001D5C4F808B000F0FAF877
:1027D00058E02068032855D1E068062806D007286D
:1027E00004D0092828D00A2826D04BE0A068012868
:1027F00008D002280AD003280FD0042812D00528B8
:1028000015D03FE06E4901F1080003E06C4910313A
:1028100001F10800FFF72CFB34E06949203101F198
:102820000800F7E76649303101F10800F2E7644932
:10283000403101F10800EDE7A068012808D0022826
:102840000BD003280ED0042811D0052814D019E08D
:102850005B49091D01F1080012E05949143101F1E9
:1028600008000DE05649243101F1080008E0544900
:10287000343101F1080003E05149443101F108000D
:10288000FFF70EFB01213046FDF7ECFDE1698842C0
:102890003FF4FAAB01213046FDF7E4FD00287FF458
:1028A000F3AB01213046FDF7DDFD0028F9D060696A
:1028B000401C6061012808D0022809D004281AD0E1
:1028C000032836D0052861D072E0FEF787FF6FE05D
:1028D000206830B1012808D0022806D0032807D08C
:1028E00066E06561FEF73CFF62E0FFF78BFA5FE0B0
:1028F00000F068F85CE02068012804D0022802D0CB
:10290000032803D054E0C4F814A0EEE7E0680C28D4
:1029100005D00D2803D00E2801D00F2848D100F093
:1029200051F8032044F80C0B062084E821040C3CE9
:1029300016E02168022901D0012908D160680C281D
:1029400008D00D2806D00E2804D00F2802D0032965
:1029500009D02DE02560C4F814806560FEF73EFFC5
:10296000FEF7A4FE24E0A06850B101280BD0022895
:1029700009D0032807D0042805D0052803D017E084
:10298000C4F81480A1E7FFF70BFA11E020680328D0
:102990000ED1A068012807D0022805D0032803D053
:1029A000042801D0052803D1FFF7FAF9032060615C
:1029B000A06901287FF468ABA5616561FFF764BB7E
:1029C00048000020354810B58068D8B1012828D0CB
:1029D000022835D0032842D004284FD005285CD1E6
:1029E000FEF7D4FD00210846FEF776FE2CA0FEF788
:1029F00069FE01210020FEF76FFE2CA0BDE810400B
:102A0000FEF760BEFEF7C2FD00210846FEF764FE39
:102A100029A0FEF757FE01210020FEF75DFE28A049
:102A2000ECE7FEF7B3FD00210846FEF755FE27A0B0
:102A3000FEF748FE01210020FEF74EFE25A0DDE74F
:102A4000FEF7A4FD00210846FEF746FE1CA0FEF797
:102A500039FE01210020FEF73FFE21A0CEE7FEF760
:102A600095FD00210846FEF737FE20A0FEF72AFE5E
:102A700001210020FEF730FE1FA0BFE7FEF786FD14
:102A800000210846FEF728FE1EA0FEF71BFE0121CE
:102A90000020FEF721FE1EA0B0E710BD00000020C0
:102AA0002042414F20544855432034003E42414F7C
:102AB00020544855432035003E4241434B0000001E
:102AC0002042414F20544855432031002042414389
:102AD0004B0000003E42414F2054485543203100F6
:102AE0003E42414F20544855432032002042414F3E
:102AF00020544855432032003E42414F205448550F
:102B0000432033003E42414F205448554320340077
:102B10002042414F205448554320350010B5FEF760
:102B200035FD00210320FEF7D7FD06A0FEF7CAFD04
:102B300001210220FEF7D0FDBDE8104004A0FEF701
:102B4000C1BD000054484F4E472042414F00000095
:102B5000434F2042414F205448554300094A1269CF
:102B600042B1012A05D10868401E086001D517202E
:102B7000086070470168491E01600129F9DA1F21C8
:102B80000160704700000020094A126942B1012A21
:102B900005D10868401E086001D53B2008607047D9
:102BA0000168491E01600129F9DA0C2101607047B2
:102BB00000000020000000004000000014000000A1
:102BC00054000000000000000000000001020304A7
:102BD000060708090000000001020304FC2B00089E
:102BE00000000020B4000000241A0008B02C0008E7
:102BF000B40000206C040000341A0008000000003B
:102C000000000000000000000600000000000000BE
:102C100000000000000000000100000001000000B2
:102C200001000000000000000000000000000000A3
:102C30000000000000000000000000000000000094
:102C40000000000000000000000000000100000083
:102C50000100000000000000000000000100000072
:102C60000100000000000000000000000100000062
:102C70000100000000000000000000000100000052
:102C80000100000000000000000000000100000042
:102C90000100000000000000000000000000000033
:102CA0000100000010000000000000000024F400FB
:04000005080000ED02
:00000001FF
